:100000000C942A000C9420020C9447000C94470096
:100010000C9447000C9447000C9447000C94470044
:100020000C9447000C9447000C9447000C94470034
:100030000C9447000C9447000C9447000C94470024
:100040000C9447000C9447000C9447000C94470014
:100050000C94470011241FBECFE5D8E0DEBFCDBF12
:1000600010E0A0E6B0E0EEE8F7E002C005900D92E7
:10007000A236B107D9F720E0A2E6B0E001C01D9298
:10008000A736B207E1F70E9466020C94C5030C94F0
:10009000000062E084E40E94470260E081E40E9484
:1000A0004B0261E081E40E944B0262E081E40E9425
:1000B0004B0260E082E40E944B0261E082E40E9415
:1000C0004B0262E082E40E944B02789485B7836021
:1000D00085BF8BB780648BBF13BE12BE83B78160B0
:1000E00083BF60E081E40E94530261E081E40E94EA
:1000F000530262E081E40E94530260E082E40E94C5
:10010000530261E082E40E94530262E082E40E94B2
:1001100053020895AC0180916500813019F410926A
:100120006500089512BE14C008B600FEFDCF98B752
:10013000916098BF90916500913089F020916300A3
:10014000309164002F5F3F4F309364002093630031
:1001500020916300309164004217530728F71092F2
:1001600064001092630013BE83B7816083BF08955B
:10017000813009F44DC020F0823009F476C0089532
:1001800081E0809366001DC061E081E40E944F021F
:10019000809165008130C9F082EA97E00E948A0070
:1001A00061E081E40E94530280916500813069F032
:1001B00082EA97E00E948A00809160008F5F8093BE
:1001C0006000809160008630F8F281E080936000EA
:1001D00010926600089561E082E40E944F028091CF
:1001E00065008130C9F082EA97E00E948A0061E0F0
:1001F00082E40E94530280916500813069F082EAB6
:1002000097E00E948A00809160008F5F8093600079
:10021000809160008630F8F281E08093600008955C
:1002200061E081E40E944F0261E082E40E944F029B
:10023000809165008130E9F082EA97E00E948A00AF
:1002400061E081E40E94530261E082E40E94530273
:1002500080916500813069F082EA97E00E948A000F
:10026000809160008F5F8093600080916000863095
:10027000B8F281E08093600010926600089561E01A
:1002800081E40E94530262E081E40E94530260E034
:1002900081E40E944F0262E082E40E944F0280915A
:1002A0006500813019F410926500E9CF85E59CE482
:1002B0000E948A0080916500813019F410926500D7
:1002C000DECF60E081E40E9453021092620080E081
:1002D0000E94B80080916500813019F41092650089
:1002E000CECF61E081E40E94530262E081E40E948B
:1002F0004F0280916500813019F410926500BFCFE4
:1003000085E59CE40E948A0062E081E40E94530239
:1003100081E08093620080E00E94B800B0CF62E08C
:1003200081E40E945702813069F462E082E40E9415
:10033000530260E082E40E944F0285E59CE40E9443
:100340008A006AC060E081E40E945702813029F08F
:1003500080916600813009F05FC060E081E40E9416
:100360005702813061F462E082E40E944F0282E031
:100370000E94B80060E081E40E94530229C080918D
:100380006600813061F490916200911108C062E0D2
:1003900082E40E944F0282E00E94B80019C08130BE
:1003A000B9F480916200813099F482E00E94B80033
:1003B00060E081E40E944F0281E00E94B80060E0AA
:1003C00081E40E94530282E00E94B8001092620011
:1003D00061E081E40E94530262E081E40E944F02E6
:1003E00082EA97E00E948A0062E082E40E9453025F
:1003F00061E082E40E944F0282EA97E00E948A0054
:1004000061E082E40E94530260E082E40E944F02B5
:1004100085E59CE40E948A0062E081E40E94530228
:1004200082E00E94B80060E082E40E94530261E032
:1004300082E40E94530262E082E40E944F02089527
:100440001F920F920FB60F9211242F933F934F9349
:100450005F936F937F938F939F93AF93BF93EF932C
:10046000FF930E948F0181E080936500FF91EF91DF
:10047000BF91AF919F918F917F916F915F914F91BC
:100480003F912F910F900FBE0F901F90189540E055
:100490000E946D02089541E00E946D02089541E0BE
:1004A0000E94E702089540E00E94E7020895CF937A
:1004B000DF931F92CDB7DEB7AE014F5F5F4F0E9453
:1004C000610389810F90DF91CF9108950E944900C7
:1004D0000E943F0180E090E00895823431F118F4E9
:1004E000813439F008958334E1F1843409F454C03F
:1004F000089541110CC02AB381E090E002C0880F3A
:10050000991F6A95E2F7809582238ABB089541304E
:1005100009F05CC02AB381E090E002C0880F991F07
:100520006A95E2F7822B8ABB089541110CC027B36C
:1005300081E090E002C0880F991F6A95E2F78095EC
:10054000822387BB0895413009F040C027B381E082
:1005500090E002C0880F991F6A95E2F7822B87BB53
:10056000089541110CC024B381E090E002C0880FCF
:10057000991F6A95E2F78095822384BB08954130E4
:1005800029F524B381E090E002C0880F991F6A9595
:10059000E2F7822B84BB089541110CC021B381E0A6
:1005A00090E002C0880F991F6A95E2F78095822338
:1005B00081BB0895413051F421B381E090E002C045
:1005C000880F991F6A95E2F7822B81BB08958234C8
:1005D00031F118F4813439F008958334E1F1843431
:1005E00009F454C0089541110CC02BB381E090E090
:1005F00002C0880F991F6A95E2F7809582238BBB12
:100600000895413009F05CC02BB381E090E002C056
:10061000880F991F6A95E2F7822B8BBB08954111D1
:100620000CC028B381E090E002C0880F991F6A9542
:10063000E2F78095822388BB0895413009F040C0DD
:1006400028B381E090E002C0880F991F6A95E2F715
:10065000822B88BB089541110CC025B381E090E046
:1006600002C0880F991F6A95E2F78095822385BBA7
:100670000895413029F525B381E090E002C0880F4C
:10068000991F6A95E2F7822B85BB089541110CC032
:1006900022B381E090E002C0880F991F6A95E2F7CB
:1006A0008095822382BB0895413051F422B381E0CA
:1006B00090E002C0880F991F6A95E2F7822B82BBF7
:1006C0000895823401F118F4813439F008958334A7
:1006D00081F1843409F443C0089579B381E090E056
:1006E0009C01062E02C0220F331F0A94E2F7872FC7
:1006F00090E08223932302C0959587956A95E2F74F
:10070000FA018083089576B381E090E09C01062E83
:1007100002C0220F331F0A94E2F7872F90E0822352
:10072000932302C0959587956A95E2F7FA01808335
:10073000089573B381E090E09C01062E02C0220F61
:10074000331F0A94E2F7872F90E08223932302C09D
:10075000959587956A95E2F7FA018083089570B3BD
:1007600081E090E09C01062E02C0220F331F0A9404
:10077000E2F7872F90E08223932302C09595879517
:0E0780006A95E2F7FA0180830895F894FFCF9E
:02078E00010068
:00000001FF
